:020000040000FA
:100000000C9480000C94A8000C94A8000C94A800F8
:100010000C94A8000C94A8000C94A8000C94A800C0
:100020000C94A8000C94A8000C94A8000C94A800B0
:100030000C94A8000C94A8000C94A8000C94A800A0
:100040000C9422040C94A8000C94A8000C94A80012
:100050000C94A8000C94A8000C94A8000C94A80080
:100060000C94A8000C94A8004E414E494E49545996
:10007000494E46CDCCCC3D0AD7233C17B7D1387773
:10008000CC2B329595E6241FB14F0A000020410089
:1000900000C84200401C4620BCBE4CCA1B0E5AAED3
:1000A000C59D7400000000240027002A0000000005
:1000B00000250028002B0000000000230026002956
:1000C0000004040404040404040202020202020301
:1000D000030303030301020408102040800102040B
:1000E000081020010204081020000000080002018E
:1000F00000000304070000000000000000001408D6
:1001000011241FBECFEFD8E0DEBFCDBF21E0ACE4AD
:10011000B1E001C01D92A53FB207E1F711E0A0E0F8
:10012000B1E0E8E5FDE102C005900D92AC34B10705
:10013000D9F710E0C0E8D0E004C02197FE010E948A
:10014000B20CCF37D107C9F70E946C040C94AA0EE9
:100150000C94000096E0899FD0011124AE59BE4F47
:1001600090967C936E935F9791E091969C93919774
:10017000E091CF01F091D0019091CE01992339F017
:10018000309751F0811108C080917E010994309719
:1001900019F05C968C91FACF0895CF92DF92EF928E
:1001A000FF920F931F9396E0899FF0011124EE595F
:1001B000FE4F11A2278D30A12130310551F178F089
:1001C0002230310509F451C02330310509F452C001
:1001D0001F910F91FF90EF90DF90CF9008956623CD
:1001E000B9F361E070E00E94AA002FB7F894809103
:1001F0005E0190915F01A0916001B09161012FBFFC
:100200008093BA019093BB01A093BC01B093BD0150
:10021000DFCF9FB7F894C0905E01D0905F01E0906F
:100220006001F09061019FBF0091BA011091BB0184
:100230002091BC013091BD01C01AD10AE20AF30A33
:100240000091CC011091CD0130E020E00C151D058E
:100250002E053F0550F462E070E01F910F91FF9072
:10026000EF90DF90CF900C94AA006111B1CF63E0C2
:1002700070E0F3CF70E060E0F0CF833081F028F4DD
:10028000813099F08230A9F008958730A9F0883044
:10029000C9F08430B1F4809180008F7D03C08091DB
:1002A00080008F7780938000089584B58F7784BD18
:1002B000089584B58F7DFBCF8091B0008F778093B8
:1002C000B00008958091B0008F7DF9CFCF93DF9378
:1002D000282F30E0F901E751FF4F8491F901EB52EB
:1002E000FF4FD491F901EF53FF4FC491CC23A1F0FC
:1002F00081110E943D01EC2FF0E0EE0FFF1FE95449
:10030000FF4FA591B491EC91ED2381E090E009F4C9
:1003100080E0DF91CF91089580E090E0FACF1F93C5
:10032000CF93DF93282F30E0F901E751FF4F8491FD
:10033000F901EB52FF4FD491F901EF53FF4FC491F4
:10034000CC23A9F0162F81110E943D01EC2FF0E083
:10035000EE0FFF1FE355FF4FA591B4918FB7F894AF
:10036000EC91111108C0D095DE23DC938FBFDF9193
:10037000CF911F910895DE2BF8CFCF93DF9390E0BC
:10038000FC01EB52FF4F24918F539F4FFC0184914E
:100390008823C9F090E0880F991FFC01ED55FF4FAD
:1003A000A591B491FC01E355FF4FC591D491611122
:1003B0000DC09FB7F8948C91209582238C938881EF
:1003C000282328839FBFDF91CF910895623051F495
:1003D0009FB7F8943C91822F809583238C93E8817A
:1003E0002E2BEFCF8FB7F894EC912E2B2C938FBF41
:1003F000EACF862F642F0C94BD01862F642F0C94B6
:100400008F01862F0C946601AF92BF92CF92DF923C
:10041000EF92FF920F931F93CF93DF936C017B01B9
:100420008B01040F151FEB015E01AE18BF08C0174A
:10043000D10759F06991D601ED91FC910190F081BD
:10044000E02DC6010995892B79F7C501DF91CF9180
:100450001F910F91FF90EF90DF90CF90BF90AF90E2
:100460000895089590E080E00895FC010190002037
:10047000E9F73197AF01481B590BBC0187ED91E0BB
:100480000C9404028F929F92AF92BF920F931F938E
:10049000CF93DF93CDB7DEB7A1970FB6F894DEBF49
:1004A0000FBECDBF19A2423008F44AE08E010F5DA5
:1004B0001F4F842E912CB12CA12CA50194010E94D8
:1004C000900CE62FB901CA01EA30F4F4E05DD801DE
:1004D000EE938D01232B242B252B79F790E080E0E0
:1004E000109719F0CD010E943502A1960FB6F8942D
:1004F000DEBF0FBECDBFDF91CF911F910F91BF9097
:10050000AF909F908F900895E95CE1CFCF93DF93F8
:10051000EC018091D1019091D201009759F0209186
:10052000D3013091D4012C173D0720F081E0DF91F9
:10053000CF910895BE016F5F7F4F0E94DD0D009740
:1005400089F09093D2018093D101D093D401C093CC
:10055000D3012091D5013091D601232B39F7FC012D
:100560001082E4CF80E0E3CF90E080E00E9486023A
:100570002091D1013091D201811113C02115310593
:1005800019F0C9010E94540D1092D2011092D101AC
:100590001092D6011092D5011092D4011092D3017D
:1005A00008951092D6011092D50166E471E0C90158
:1005B0000C94A30ECF93DF93EC0160E08E810E9438
:1005C0008F0161E08E810E948F0160E08E810E9428
:1005D0008F018BE891E00197F1F7DF91CF910895BA
:1005E000CF92DF92EF92FF920F931F93CF93DF93FF
:1005F0006C017C0187E0E80EF11CD0E0C0E0062F22
:1006000010E0B8010C2E02C0759567950A94E2F7C8
:100610006170F70181917F010E948F012196C430A2
:10062000D10579F7C601DF91CF911F910F91FF900E
:10063000EF90DF90CF900C94DA02CF92DF92EF929E
:10064000FF920F931F93CF93DF93EC01F62E642F4D
:100650008C810E948F018D818F3F19F060E00E9494
:100660008F010F2D10E08F8584FF25C06E0187E07C
:10067000C80ED11CF12CE12CB8010E2C02C07595CE
:1006800067950A94E2F76170F60181916F010E940B
:100690008F01FFEFEF1AFF0A88E0E816F10461F717
:1006A000CE01DF91CF911F910F91FF90EF90DF90DE
:1006B000CF900C94DA02B80184E0759567958A951D
:1006C000E1F7CE010E94F0026F2DCE01DF91CF91B4
:1006D0001F910F91FF90EF90DF90CF900C94F0025C
:1006E00040E0682F87ED91E00C941D03CF93DF93DA
:1006F000823029F49091E60198609093E60180930E
:10070000EA011092EB0180E48093EC0180E1809398
:10071000ED0180E58093EE0161E08091DB010E94B4
:10072000BD018091DC018F3F19F061E00E94BD01A5
:1007300061E08091DD010E94BD01C7EDD1E09E0125
:10074000275D31408091E60184FD0BC084E090E09C
:1007500021962817390744F461E08E810E94BD017B
:10076000EECF88E090E0F4CF8BE39DE00197F1F7C6
:1007700060E08091DB010E948F0160E08091DD01EB
:100780000E948F018091DC018F3F19F060E00E9490
:100790008F018091E60184FD39C063E087ED91E02F
:1007A0000E94F002CBE4D6E4CE010197F1F763E0BA
:1007B00087ED91E00E94F0022197F1F763E087ED69
:1007C00091E00E94F00283E592E00197F1F762E088
:1007D00087ED91E00E94F0028091E60180620E9424
:1007E000700384E08093E7018CE00E94700381E055
:1007F0000E9470038BE39FE10197F1F782E0809301
:10080000E80186E0DF91CF910C94700380620E9432
:1008100070038BE496E40197F1F78091E601806222
:100820000E94700383E592E00197F1F78091E60161
:1008300080620E947003D0CF41E00E941D0381E0DE
:1008400090E008951F920F920FB60F9211242F93EC
:100850003F938F939F93AF93BF9380915E0190914D
:100860005F01A0916001B091610130915D0123E0D1
:10087000230F2D3758F50196A11DB11D20935D0161
:1008800080935E0190935F01A0936001B09361013A
:100890008091590190915A01A0915B01B0915C0146
:1008A0000196A11DB11D8093590190935A01A09307
:1008B0005B01B0935C01BF91AF919F918F913F918C
:1008C0002F910F900FBE0F901F90189526E8230FC1
:1008D0000296A11DB11DD2CFCF93DF9300D0CDB72B
:1008E000DEB7789484B5826084BD84B5816084BDB0
:1008F00085B5826085BD85B5816085BD80916E00BE
:10090000816080936E0010928100809181008260EE
:10091000809381008091810081608093810080912B
:1009200080008160809380008091B100846080931A
:10093000B1008091B00081608093B00080917A0016
:10094000846080937A0080917A00826080937A003C
:1009500080917A00816080937A0080917A0080682B
:1009600080937A001092C10082E00E947603412CAD
:10097000512C3201439451E05093CE018FB7F8943B
:1009800040915E0150915F01609160017091610141
:100990008FBF8091BE019091BF01A091C001B09125
:1009A000C101481B590B6A0B7B0B8091CA019091C6
:1009B000CB01B0E0A0E084179507A607B70708F0C1
:1009C0001CC110E08091C801181760F4E091C401C7
:1009D000F091C501E10FF11D62E080810E94BD012F
:1009E0001F5FF0CF312C8091C901381608F061C02B
:1009F000E32CF12CE091C601F091C701EE0DFF1D33
:100A000061E080810E94BD01E091C601F091C701C3
:100A1000EE0DFF1D60E080810E948F01D301C201B5
:100A2000032C04C0880F991FAA1FBB1F0A94D2F77A
:100A30004C016C01C094D094212C8091C8012816DF
:100A400008F5022D10E0E091C401F091C501E00F1E
:100A5000F11F80810E9466010C5F1F4F000F111F64
:100A6000F801EE59FE4F892B41F48081918188294C
:100A70009929918380832394E0CF808191818C2177
:100A80009D21F7CFE091C601F091C701EE0DFF1D4A
:100A900061E080810E948F018091C6019091C70121
:100AA000E80EF91E60E0F70180810E94BD013394D9
:100AB0009ACF02E611E07801F701878D90A1892B8A
:100AC00031F4148E8FEF9FEF968F858F11A296E0F1
:100AD000E90EF11CEEE9EE16E1E0FE0669F7D12C15
:100AE0008091C801D81608F053C0C12C8D2C912CD0
:100AF000880C991CC40186599E4F4C012091C90154
:100B0000C21608F043C0F401608171810C2C02C050
:100B1000769567950A94E2F7D29E900111242C0DE8
:100B2000311DE2E6F1E080E0458D568D2417350752
:100B300009F478C28F5F36968A30B1F760FF24C01F
:100B4000E2E6F1E090E080E0448D411118C0E091D0
:100B5000C201F091C301E20FF31F408156E0589F9C
:100B6000F001599FF00D1124EE59FE4F448F368F3E
:100B7000258F10A2178E61E00E94CD0005C001965E
:100B800036968A30910501F7C394B8CFD394A8CF95
:100B900080E0F80191A19111892F0A5F1F4FE016A3
:100BA000F106B9F79FB7F89440915E0150915F014B
:100BB00060916001709161019FBF4093BE015093AD
:100BC000BF016093C0017093C1018823B1F080918F
:100BD0008301882391F08091810190918201019796
:100BE00061F410917E0111110BC080E090E0892B1F
:100BF00009F4C1CE0E940000BECE1092CE01F5CF06
:100C000081E00E9470038BE39FE10197F1F7E1E03F
:100C10008091EA018111E0E0E195F0E0E952FE4FB8
:100C2000848980680E94700384E391E00E94350209
:100C30008091510181112BC01092D2011092D101EB
:100C40001092D4011092D3011092D6011092D501C6
:100C500090E080E00E9486022091D1013091D20183
:100C6000811153C02115310519F0C9010E94540D9D
:100C70001092D2011092D1011092D6011092D5019A
:100C80001092D4011092D301F1E0F093510180ED64
:100C9000810F8A3008F045C019831A820091D5016E
:100CA0001091D6010F5F1F4FC8010E948602882352
:100CB00099F02091D1013091D2018091D50190918C
:100CC000D601BE016F5F7F4F820F931F0E94A30E5C
:100CD0001093D6010093D501E091EA01E230F8F4D7
:100CE000E150F0E0E952FE4F848980680E94700371
:100CF0004091D5015091D6016091D1017091D201FE
:100D000087ED91E00E94040270CF1092D6011092FC
:100D1000D50166E471E0C9010E94A30EB5CFE1E000
:100D2000E0CF812F8D7F8D3229F086ED810F8230CB
:100D300008F060C08091D1019091D201C12CD12CDA
:100D40007601009721F00E948B086B017C010E94C4
:100D5000B402809150018B32B9F4A70196016091E1
:100D60004C0170914D0180914E0190914F010E9474
:100D7000790B60934C0170934D0180934E019093D9
:100D80004F011093500131CF8D3269F4A7019601C4
:100D900060914C0170914D0180914E0190914F01F5
:100DA0000E94780BE6CF8A3269F4A7019601609120
:100DB0004C0170914D0180914E0190914F010E9424
:100DC000660AD7CF8F3269F4A701960160914C0172
:100DD00070914D0180914E0190914F010E94E50B61
:100DE000C8CFC0924C01D0924D01E0924E01F092DA
:100DF0004F01C7CF1D3309F0F8CE8091D1019091FA
:100E0000D201C12CD12C7601009721F00E948B08D1
:100E10006B017C010E94B402809150018B32B1F5CC
:100E2000A701960160914C0170914D0180914E0196
:100E300090914F010E94790B60934C0170934D018A
:100E400080934E0190934F01E091EA01E23008F067
:100E500053C0E150F0E0E952FE4F848980680E945F
:100E60007003C0904C01D0904D01E0904E01F09085
:100E70004F01A7019601C701B6010E948B0C882380
:100E8000E9F18FE391E00E943502AFCE8D3269F433
:100E9000A701960160914C0170914D0180914E0126
:100EA00090914F010E94780BC7CF8A3269F4A70155
:100EB000960160914C0170914D0180914E0190918D
:100EC0004F010E94660AB8CF8F3269F4A7019601DC
:100ED00060914C0170914D0180914E0190914F01B4
:100EE0000E94E50BA9CFC0924C01D0924D01E09237
:100EF0004E01F0924F01A8CFE1E0ACCF460157017F
:100F0000E894B7F82FEF3FEF4FE75FE7C501B40173
:100F10000E948B0C81110DC02FEF3FEF4FE75FE771
:100F2000C501B4010E94000A18161CF483E491E084
:100F3000AACF2FEF3FEF4FE75FE4C701B6010E9452
:100F4000860C18161CF487E491E09DCF2FEF3FEF3D
:100F50004FE75FECC701B6010E94000A87FDF3CF9F
:100F600020E030E0A901C701B6010E94000A87FF16
:100F70000AC041E06DE287ED91E00E941D03F7FA9F
:100F8000F094F7F8F0942AE037ED43EA5BE3C70109
:100F9000B6010E94790B4B015C010E94570C6B015A
:100FA0007C010E94050A9B01AC01C501B4010E94AD
:100FB000780B4B015C014AE0C701B6010E94420276
:100FC00041E06EE287ED91E00E941D0320E030E0F9
:100FD00040E251E4C501B4010E94660A4B015C0184
:100FE0000E94570C6B01F12CE12C4AE0C701B601BD
:100FF0000E944202C701B6010E94050A9B01AC0192
:10100000C501B4010E94780B20E030E040E251E4D9
:101010000E94660A0E94570C90E080E04AE00E941D
:101020004202E3CD6170A8CD1092DA011092D9018D
:101030008CE291E09093D8018093D7018DE080936A
:10104000DB018FEF8093DC018CE08093DD018BE08E
:101050008093DE018AE08093DF0189E08093E001E4
:1010600088E08093E1011092E2011092E301109276
:10107000E4011092E5011092E60181E00E947603FE
:101080001092640110926801109267011092690138
:1010900082E291E09093630180936201EEE7F1E0D8
:1010A0001082148213821582369681E0EA3BF8079B
:1010B000B9F784E091E09093C5018093C40180E08A
:1010C00091E09093C7018093C60184E08093C801AA
:1010D0008093C90188E091E09093C3018093C2019D
:1010E0008AE090E09093CB018093CA0184EF91E075
:1010F0009093CD018093CC011092D0011092CF013A
:101100001092BE011092BF011092C0011092C10155
:101110001092CE010895662777270C948F08B0E0CF
:10112000A0E0E5E9F8E00C94380B5C017B01611567
:10113000710519F0DB018D939C9385010F5F1F4FA3
:10114000F501D0818D2F90E00E94DF096C01892B81
:10115000B9F5DD32B9F50F5F1F4FD5011196DC915E
:10116000C1E05801F1E0AF1AB10843E050E060E798
:1011700070E0C5010E94E809892B69F5680182E0E9
:10118000C80ED11C45E050E06BE670E0C6010E943D
:10119000E809892B21F4680197E0C90ED11CE114FC
:1011A000F10419F0D701CD92DC9260E070E080E8A4
:1011B0009FEFC111FFC060E070E080E89FE7FAC0D8
:1011C0005801BBCFDB3229F485010E5F1F4FF501BB
:1011D000D181C0E0C6CF43E050E068E670E0C501D1
:1011E0000E94E809892BE9F0F80110E000E020E016
:1011F00030E0A9015F01B0ED8B2E8D0E89E08815DE
:10120000C8F19C2E689491F88C2F8870C2FF16C08C
:10121000811102C00F5F1F4F3196D501DC91C92D9E
:10122000E9CFE114F10429F00E5F1F4FF70111839C
:10123000008360E070E080EC9FE7BCC0882311F081
:1012400001501109A5E0B0E00E94270B9B01AC0101
:10125000220F331F441F551F280D311D411D511DE5
:10126000283999E93907490799E15907A8F2C66071
:101270009C2ED2CFAEEF8A1206C0C3FD3CC09C2E7E
:10128000689493F8C9CFDF7DD534A9F580818D327C
:1012900039F4C061DF011296818162E070E006C01E
:1012A000DF018B32C1F3119661E070E080535D0184
:1012B000A61AB70A8A30F8F4E0E8CE16ECE0DE06AB
:1012C0005CF4B601660F771F660F771FC60ED71E38
:1012D000CC0CDD1CC80ED11C5D01FFEFAF1ABF0A9C
:1012E0008C9180538A30A8F1C4FF03C0D194C1947B
:1012F000D1080C0D1D1DC1FF09C0E114F10431F02E
:1013000081E0A81AB108D701AD92BC92CA01B90117
:101310000E94050AC370C33009F490584B015C0168
:1013200020E030E0A9010E94000A882309F440C0AF
:10133000CFE9D0E017FF05C0119501951109C7E865
:10134000D0E06E01B8E1CB1AD10880E2E82EF12C92
:101350000FC0D501B1CFFE01259135914591549132
:101360000E191F09C501B4010E94660A4B015C01F8
:10137000D501C4010E151F0574F72497F594E79461
:10138000CC16DD06A9F78A2F880F8B2F881F8F3F79
:1013900049F020E030E0A901C501B4010E94000A33
:1013A000811106C082E290E09093F0018093EF01FA
:1013B000C501B401CDB7DEB7ECE00C94540B91112C
:1013C0000C94D30A803219F089508550C8F70895DB
:1013D000FB01DC014150504088F08D9181341CF0BC
:1013E0008B350CF4805E659161341CF06B350CF428
:1013F000605E861B611171F3990B0895881BFCCF09
:101400000E94420A08F481E00895E89409C097FB1D
:101410003EF490958095709561957F4F8F4F9F4FCB
:101420009923A9F0F92F96E9BB279395F69587950F
:1014300077956795B795F111F8CFFAF4BB0F11F4D2
:1014400060FF1BC06F5F7F4F8F4F9F4F16C0882379
:1014500011F096E911C0772321F09EE8872F762FAF
:1014600005C0662371F096E8862F70E060E02AF0F0
:101470009A95660F771F881FDAF7880F96958795DC
:1014800097F90895990F0008550FAA0BE0E8FEEFB1
:1014900016161706E807F907C0F012161306E40738
:1014A000F50798F0621B730B840B950B39F40A2631
:1014B00061F0232B242B252B21F408950A2609F40F
:1014C000A140A6958FEF811D811D08950E94790A84
:1014D0000C94ED0A0E94DF0A38F00E94E60A20F020
:1014E000952311F00C94D60A0C94DC0A11240C9468
:1014F000210B0E94FE0A70F3959FC1F3950F50E0F7
:10150000551F629FF001729FBB27F00DB11D639FB5
:10151000AA27F00DB11DAA1F649F6627B00DA11D5B
:10152000661F829F2227B00DA11D621F739FB00D01
:10153000A11D621F839FA00D611D221F749F332771
:10154000A00D611D231F849F600D211D822F762F0A
:101550006A2F11249F5750409AF0F1F088234AF0E7
:10156000EE0FFF1FBB1F661F771F881F9150504053
:10157000A9F79E3F510580F00C94D60A0C94210BDC
:101580005F3FE4F3983ED4F3869577956795B795DA
:10159000F795E7959F5FC1F7FE2B880F911D9695F4
:1015A000879597F9089599278827089597F99F6750
:1015B00080E870E060E008959FEF80EC08950024DB
:1015C0000A941616170618060906089500240A94A8
:1015D00012161306140605060895092E0394000C2E
:1015E00011F4882352F0BB0F40F4BF2B11F460FFBD
:1015F00004C06F5F7F4F8F4F9F4F089557FD9058E6
:10160000440F551F59F05F3F71F04795880F97FBC6
:10161000991F61F09F3F79F0879508951216130680
:101620001406551FF2CF4695F1DF08C016161706AF
:101630001806991FF1CF86957105610508940895E4
:10164000E894BB2766277727CB0197F908950E9476
:10165000690BA59F900DB49F900DA49F800D911DC7
:10166000112408952F923F924F925F926F927F9232
:101670008F929F92AF92BF92CF92DF92EF92FF92A2
:101680000F931F93CF93DF93CDB7DEB7CA1BDB0B4E
:101690000FB6F894DEBF0FBECDBF09942A883988F3
:1016A00048885F846E847D848C849B84AA84B984FA
:1016B000C884DF80EE80FD800C811B81AA81B98106
:1016C000CE0FD11D0FB6F894DEBF0FBECDBFED011A
:1016D0000895A29FB001B39FC001A39F700D811D0B
:1016E0001124911DB29F700D811D1124911D08952B
:1016F0005058BB27AA270E94900B0C94ED0A0E9419
:10170000DF0A38F00E94E60A20F039F49F3F19F40E
:1017100026F40C94DC0A0EF4E095E7FB0C94D60A50
:10172000E92F0E94FE0A58F3BA176207730784076D
:10173000950720F079F4A6F50C94200B0EF4E095B3
:101740000B2EBA2FA02D0B01B90190010C01CA017B
:10175000A0011124FF27591B99F0593F50F4503E26
:1017600068F11A16F040A22F232F342F4427585F18
:10177000F3CF469537952795A795F0405395C9F730
:101780007EF41F16BA0B620B730B840BBAF09150E8
:10179000A1F0FF0FBB1F661F771F881FC2F70EC087
:1017A000BA0F621F731F841F48F48795779567955A
:1017B000B795F7959E3F08F0B0CF9395880F08F046
:1017C0009927EE0F9795879508950E94F90B0C9431
:1017D000ED0A0E94E60A58F00E94DF0A40F029F460
:1017E0005F3F29F00C94D60A51110C94210B0C94F4
:1017F000DC0A0E94FE0A68F39923B1F3552391F3A2
:10180000951B550BBB27AA2762177307840738F06F
:101810009F5F5F4F220F331F441FAA1FA9F335D0CC
:101820000E2E3AF0E0E832D091505040E695001C80
:10183000CAF72BD0FE2F29D0660F771F881FBB1F3A
:10184000261737074807AB07B0E809F0BB0B802D18
:10185000BF01FF2793585F4F3AF09E3F510578F044
:101860000C94D60A0C94210B5F3FE4F3983ED4F31A
:10187000869577956795B795F7959F5FC9F7880F18
:10188000911D9695879597F90895E1E0660F771F6A
:10189000881FBB1F621773078407BA0720F0621BFB
:1018A000730B840BBA0BEE1F88F7E09508950E9426
:1018B000060B88F09F5798F0B92F9927B751B0F0D1
:1018C000E1F0660F771F881F991F1AF0BA95C9F7C4
:1018D00014C0B13091F00E94200BB1E008950C9437
:1018E000200B672F782F8827B85F39F0B93FCCF3EA
:1018F000869577956795B395D9F73EF49095809541
:10190000709561957F4F8F4F9F4F08950E94420AB7
:1019100008F48FEF08950E94420A880B990B0895EE
:10192000A1E21A2EAA1BBB1BFD010DC0AA1FBB1FE3
:10193000EE1FFF1FA217B307E407F50720F0A21B55
:10194000B30BE40BF50B661F771F881F991F1A94C2
:1019500069F760957095809590959B01AC01BD01EC
:10196000CF010895EE0FFF1F0590F491E02D09942B
:101970000F931F93CF93DF938230910510F482E091
:1019800090E0E091F301F091F40130E020E0B0E06C
:10199000A0E0309799F42115310509F44AC0281BBD
:1019A000390B24303105D8F58A819B816115710589
:1019B00089F1FB0193838283FE0111C04081518133
:1019C0000281138148175907E0F04817590799F425
:1019D000109761F012960C93129713961C933296FF
:1019E000CF01DF91CF911F910F9108950093F301E3
:1019F0001093F401F4CF2115310551F0421753072C
:101A000038F0A901DB019A01BD01DF01F801C1CF66
:101A1000EF01F9CF9093F4018093F301CDCFFE0154
:101A2000E20FF31F81939193225031093983288368
:101A3000D7CF2091F1013091F201232B41F4209175
:101A40001A0130911B013093F2012093F101209192
:101A50001801309119012115310541F42DB73EB718
:101A600040911C0150911D01241B350BE091F101A7
:101A7000F091F201E217F307A0F42E1B3F0B281799
:101A8000390778F0AC014E5F5F4F2417350748F0F7
:101A90004E0F5F1F5093F2014093F1018193919398
:101AA0009FCFF0E0E0E09CCFCF93DF930097E9F089
:101AB000FC01329713821282A091F301B091F401DC
:101AC000ED0130E020E01097A1F420813181820FF8
:101AD000931F2091F1013091F2012817390709F085
:101AE00061C0F093F201E093F101DF91CF9108958D
:101AF000EA01CE17DF07E8F54A815B819E014115B7
:101B00005105B1F7E901FB83EA8349915991C40F6B
:101B1000D51FEC17FD0761F4808191810296840F37
:101B2000951FE90199838883828193819B838A83AE
:101B3000F0E0E0E012968D919C9113970097B9F533
:101B40002D913C911197CD010296820F931F209108
:101B5000F1013091F2012817390739F6309751F524
:101B60001092F4011092F301B093F201A093F101ED
:101B7000BCCFD383C28340815181840F951FC81786
:101B8000D90761F44E5F5F4F88819981480F591FD3
:101B9000518340838A819B81938382832115310500
:101BA00009F0B0CFF093F401E093F3019ECFFD0173
:101BB000DC01C0CF13821282D7CFB0E0A0E0E3EE09
:101BC000FDE00C94340B8C01009751F4CB010E9482
:101BD000B80C8C01C801CDB7DEB7E0E10C94500B16
:101BE000FC01E60FF71F9C0122503109E217F307B1
:101BF00008F49DC0D901CD91DC911197C617D70784
:101C000098F0C530D10530F3CE01049786179707B9
:101C100008F3C61BD70B2297C193D1936D937C9386
:101C2000CF010E94540DD6CF5B01AC1ABD0A4C0106
:101C30008C0E9D1EA091F301B091F401512C412C0A
:101C4000F12CE12C109731F58091F1019091F20186
:101C50008815990509F05CC04616570608F058C06B
:101C60008091180190911901009741F48DB79EB7AA
:101C700040911C0150911D01841B950BE817F90739
:101C800008F055C0F093F201E093F101F90171837E
:101C90006083A0CF8D919C91119712966C901297B2
:101CA00013967C901397A815B90559F56C0142E07D
:101CB000C40ED11CCA14DB0420F1AC014A195B0923
:101CC000DA011296159780F0628273825183408305
:101CD000D9016D937C93E114F10471F0D70113964F
:101CE000FC93EE93129776CF22968C0F9D1FF901ED
:101CF00091838083F301EFCFF093F401E093F3013C
:101D000069CF4816590608F42C017D01D3019ACFFA
:101D1000CB010E94B80C7C01009749F0AE01B801DC
:101D20000E949A0EC8010E94540D870153CF10E003
:101D300000E050CFFB01DC0102C001900D92415048
:101D40005040D8F70895FB01DC0101900D9200206E
:101D5000E1F70895F894FFCF060708090203040588
:101D60003132334134353642373839432A3023440F
:101D70000000F501800000000000F901FD010102F2
:101D8000000000001C0404023202310243616C6353
:101D9000756C61746F72006E616E00696E66006FC3
:041DA0007666000063
:107E0000112484B714BE81FFF0D085E080938100F7
:107E100082E08093C00088E18093C10086E0809377
:107E2000C20080E18093C4008EE0C9D0259A86E02C
:107E300020E33CEF91E0309385002093840096BBD3
:107E4000B09BFECF1D9AA8958150A9F7CC24DD24C4
:107E500088248394B5E0AB2EA1E19A2EF3E0BF2EE7
:107E6000A2D0813461F49FD0082FAFD0023811F036
:107E7000013811F484E001C083E08DD089C08234E0
:107E800011F484E103C0853419F485E0A6D080C0E4
:107E9000853579F488D0E82EFF2485D0082F10E0AE
:107EA000102F00270E291F29000F111F8ED06801E7
:107EB0006FC0863521F484E090D080E0DECF843638
:107EC00009F040C070D06FD0082F6DD080E0C81688
:107ED00080E7D80618F4F601B7BEE895C0E0D1E017
:107EE00062D089930C17E1F7F0E0CF16F0E7DF06D8
:107EF00018F0F601B7BEE89568D007B600FCFDCFD4
:107F0000A601A0E0B1E02C9130E011968C91119780
:107F100090E0982F8827822B932B1296FA010C0160
:107F200087BEE89511244E5F5F4FF1E0A038BF0790
:107F300051F7F601A7BEE89507B600FCFDCF97BE46
:107F4000E89526C08437B1F42ED02DD0F82E2BD052
:107F50003CD0F601EF2C8F010F5F1F4F84911BD097
:107F6000EA94F801C1F70894C11CD11CFA94CF0C13
:107F7000D11C0EC0853739F428D08EE10CD085E9AC
:107F80000AD08FE07ACF813511F488E018D01DD067
:107F900080E101D065CF982F8091C00085FFFCCF94
:107FA0009093C60008958091C00087FFFCCF809118
:107FB000C00084FD01C0A8958091C6000895E0E648
:107FC000F0E098E1908380830895EDDF803219F02E
:107FD00088E0F5DFFFCF84E1DECF1F93182FE3DFCA
:107FE0001150E9F7F2DF1F91089580E0E8DFEE27F6
:047FF000FF270994CA
:027FFE00040479
:00000001FF
